{
  "_format": "hh-sol-artifact-1",
  "contractName": "Simple",
  "sourceName": "contracts/Simple.sol",
  "abi": [
    {
      "inputs": [
        {
          "internalType": "string",
          "name": "_name",
          "type": "string"
        }
      ],
      "stateMutability": "nonpayable",
      "type": "constructor"
    },
    {
      "inputs": [],
      "name": "getDiscordHandle",
      "outputs": [
        {
          "internalType": "string",
          "name": "",
          "type": "string"
        }
      ],
      "stateMutability": "view",
      "type": "function"
    },
    {
      "inputs": [],
      "name": "greet",
      "outputs": [
        {
          "internalType": "string",
          "name": "",
          "type": "string"
        }
      ],
      "stateMutability": "pure",
      "type": "function"
    },
    {
      "inputs": [
        {
          "internalType": "string",
          "name": "_name",
          "type": "string"
        }
      ],
      "name": "setDiscordHandle",
      "outputs": [],
      "stateMutability": "nonpayable",
      "type": "function"
    }
  ],
  "bytecode": "0x608060405234801561001057600080fd5b5060405161083a38038061083a8339818101604052810190610032919061019b565b33600160006101000a81548173ffffffffffffffffffffffffffffffffffffffff021916908373ffffffffffffffffffffffffffffffffffffffff1602179055508060009080519060200190610089929190610090565b5050610300565b82805461009c90610270565b90600052602060002090601f0160209004810192826100be5760008555610105565b82601f106100d757805160ff1916838001178555610105565b82800160010185558215610105579182015b828111156101045782518255916020019190600101906100e9565b5b5090506101129190610116565b5090565b5b8082111561012f576000816000905550600101610117565b5090565b60006101466101418461020d565b6101dc565b90508281526020810184848401111561015e57600080fd5b61016984828561023d565b509392505050565b600082601f83011261018257600080fd5b8151610192848260208601610133565b91505092915050565b6000602082840312156101ad57600080fd5b600082015167ffffffffffffffff8111156101c757600080fd5b6101d384828501610171565b91505092915050565b6000604051905081810181811067ffffffffffffffff82111715610203576102026102d1565b5b8060405250919050565b600067ffffffffffffffff821115610228576102276102d1565b5b601f19601f8301169050602081019050919050565b60005b8381101561025b578082015181840152602081019050610240565b8381111561026a576000848401525b50505050565b6000600282049050600182168061028857607f821691505b6020821081141561029c5761029b6102a2565b5b50919050565b7f4e487b7100000000000000000000000000000000000000000000000000000000600052602260045260246000fd5b7f4e487b7100000000000000000000000000000000000000000000000000000000600052604160045260246000fd5b61052b8061030f6000396000f3fe608060405234801561001057600080fd5b50600436106100415760003560e01c80636faefdb514610046578063ab81a73714610064578063cfae321714610080575b600080fd5b61004e61009e565b60405161005b9190610349565b60405180910390f35b61007e600480360381019061007991906102cf565b610130565b005b6100886101a4565b6040516100959190610349565b60405180910390f35b6060600080546100ad9061042a565b80601f01602080910402602001604051908101604052809291908181526020018280546100d99061042a565b80156101265780601f106100fb57610100808354040283529160200191610126565b820191906000526020600020905b81548152906001019060200180831161010957829003601f168201915b5050505050905090565b600160009054906101000a900473ffffffffffffffffffffffffffffffffffffffff1673ffffffffffffffffffffffffffffffffffffffff163373ffffffffffffffffffffffffffffffffffffffff161461018a57600080fd5b80600090805190602001906101a09291906101c4565b5050565b60606040518060600160405280602a81526020016104cc602a9139905090565b8280546101d09061042a565b90600052602060002090601f0160209004810192826101f25760008555610239565b82601f1061020b57805160ff1916838001178555610239565b82800160010185558215610239579182015b8281111561023857825182559160200191906001019061021d565b5b509050610246919061024a565b5090565b5b8082111561026357600081600090555060010161024b565b5090565b600061027a6102758461039c565b61036b565b90508281526020810184848401111561029257600080fd5b61029d8482856103e8565b509392505050565b600082601f8301126102b657600080fd5b81356102c6848260208601610267565b91505092915050565b6000602082840312156102e157600080fd5b600082013567ffffffffffffffff8111156102fb57600080fd5b610307848285016102a5565b91505092915050565b600061031b826103cc565b61032581856103d7565b93506103358185602086016103f7565b61033e816104ba565b840191505092915050565b600060208201905081810360008301526103638184610310565b905092915050565b6000604051905081810181811067ffffffffffffffff821117156103925761039161048b565b5b8060405250919050565b600067ffffffffffffffff8211156103b7576103b661048b565b5b601f19601f8301169050602081019050919050565b600081519050919050565b600082825260208201905092915050565b82818337600083830152505050565b60005b838110156104155780820151818401526020810190506103fa565b83811115610424576000848401525b50505050565b6000600282049050600182168061044257607f821691505b602082108114156104565761045561045c565b5b50919050565b7f4e487b7100000000000000000000000000000000000000000000000000000000600052602260045260246000fd5b7f4e487b7100000000000000000000000000000000000000000000000000000000600052604160045260246000fd5b6000601f19601f830116905091905056fe48656c6c6f2074686572652c206920686f706520796f75722064617920697320676f696e672077656c6ca2646970667358221220c141ce40e7d296709621a8c2e238161181ac0da70bd669b2533ff6bf34f4551064736f6c63430008000033",
  "linkReferences": {},
  "deployedLinkReferences": {}
}